:020000040800F2
:1000000000280020D5110008651100086B110008B8
:1000100071110008771100087D1100080000000030
:100020000000000000000000000000008311000834
:100030008F110008000000009B110008A7110008A4
:100040001D1200081D1200081D1200081D120008D4
:100050001D1200081D1200081D1200081D120008C4
:100060001D1200081D1200081D1200081D120008B4
:100070001D1200081D1200081D1200081D120008A4
:100080001D1200081D1200081D1200081D12000894
:100090001D1200081D1200081D1200081D12000884
:1000A0001D1200081D1200081D1200081D12000874
:1000B000B51100081D120008000000001D12000804
:1000C0001D12000800000000000000001D120008C2
:1000D000000000001D1200081D12000800000000B2
:1000E0001D1200081D1200081D120008000000006B
:1000F0000000000000000000000000000000000000
:0C01000000000000000000005FF808F1A3
:10010C0010B5054C237833B9044B13B10448AFF345
:10011C0000800123237010BD180000200000000097
:10012C007428000808B5034B1BB103490348AFF30F
:10013C00008008BD000000001C000020742800088E
:10014C0080B483B000AF78607B68032B01DD0023A3
:10015C000DE0094A7B6852F82330012B06D1064A80
:10016C007B68002142F82310012300E0002318468D
:10017C000C37BD4680BC7047B800002080B582B0FB
:10018C0000AF00237B6094E04E4A7B6852F823203A
:10019C004D497B6841F823204C4A7B6852F8232058
:1001AC0048497B6841F823207B68052B32D801A293
:1001BC0052F823F0D9010008F101000809020008E7
:1001CC002102000821020008210200084FF400510E
:1001DC003F4801F009FB034619463C4A7B6842F84C
:1001EC00231018E04FF48041394801F0FDFA034622
:1001FC001946364A7B6842F823100CE04FF4004154
:10020C00334801F0F1FA03461946304A7B6842F84C
:10021C00231000E000BF2C4A7B6852F823202949A8
:10022C007B6851F823309A4240D1264A7B6852F8B9
:10023C00232026497B6851F823309A4236D1234A31
:10024C007B6852F8232023497B6851F823309A426B
:10025C0018D01E4A7B6852F823201E497B6841F84F
:10026C0023201A4A7B6852F82330002B1ED11A4ADD
:10027C007B68C82142F82310184A7B68012142F898
:10028C00231013E0144A7B6852F823305A1E12498B
:10029C007B6841F82320104A7B6852F82330002BEE
:1002AC0004D10C4A7B68012142F823107B6801338E
:1002BC007B607B68022B7FF767AF00BF00BF0837FE
:1002CC00BD4680BD7C000020A000002088000020DE
:1002DC0000100140AC00002094000020B800002069
:1002EC0080B500AF674B1B680A3B032B00F2C6803E
:1002FC0001A252F823F000BF89040008150300087E
:10030C000D040008910300085F4B1B68012B0BD1F7
:10031C005C4B0D221A605D4B1B684FF47A7202FB2A
:10032C0003F3184600F0E8FD0020FFF709FF034631
:10033C00002B0AD0564B02221A60524B0A221A602A
:10034C0000222021534801F066FA1E2000F0F0FB39
:10035C00514B1B68514A82FB03129210DB17D31AC4
:10036C004F4A13604C4B19684C4B83FB01239A107A
:10037C00CB17D21A13469B0013445B00CA1A484B86
:10038C005A607CE0404B1B68012B0BD13D4B0C227F
:10039C001A60444B1B684FF47A7202FB03F3184645
:1003AC0000F0AAFD0020FFF7CBFE0346002B0AD07D
:1003BC00374B02221A60334B0A221A60002280212A
:1003CC00344801F028FA202000F0B2FB2F4B1B68B8
:1003DC00324A82FB03129210DB17D31A304A136095
:1003EC002A4B19682D4B83FB01239A10CB17D21A79
:1003FC0013469B0013445B00CA1A294B5A603EE01B
:10040C00214B1B68012B0BD11E4B0B221A60224B6C
:10041C001B684FF47A7202FB03F3184600F06CFD74
:10042C000020FFF78DFE0346002B0AD0184B02224A
:10043C001A60144B0A221A6000224021154801F060
:10044C00EAF91F2000F074FB164B1B68134A82FB61
:10045C0003129210DB17D31A114A1360114B19684F
:10046C000E4B83FB01239A10CB17D21A13469B0019
:10047C0013445B00CA1A0A4B5A6000E000BF00BF6D
:10048C0080BD00BF380000206C0000200800002058
:10049C0034000020000801400000002067666666FA
:1004AC00440000200400002080B500AF684B1B689E
:1004BC00143B032B00F2C98001A252F823F000BFB9
:1004CC0057060008DD040008D90500085B05000884
:1004DC00604B1B68012B0BD15D4B17221A605E4BD6
:1004EC001B684FF47A7202FB03F3184600F020FDF0
:1004FC000020FFF725FE0346002B0BD0574B0222A2
:10050C001A60534B14221A6000224FF48071544825
:10051C0001F081F91E2000F053FB524B1B68524A2C
:10052C0082FB03129210DB17D31A504A93604D4B87
:10053C0019684D4B83FB01239A10CB17D21A134623
:10054C009B0013445B00CA1A484BDA607EE0414BB7
:10055C001B68012B0BD13E4B16221A60444B1B68B7
:10056C004FF47A7202FB03F3184600F0E1FC002012
:10057C00FFF7E6FD0346002B0BD0384B02221A6026
:10058C00334B14221A6000224FF48061344801F07E
:10059C0042F9202000F014FB2F4B1B68324A82FBDF
:1005AC0003129210DB17D31A304A93602A4B196846
:1005BC002D4B83FB01239A10CB17D21A13469B00A9
:1005CC0013445B00CA1A294BDA603FE0214B1B68CD
:1005DC00012B0BD11E4B15221A60224B1B684FF4BA
:1005EC007A7202FB03F3184600F0A2FC0020FFF71E
:1005FC00A7FD0346002B0BD0184B02221A60144B9C
:10060C0014221A6000224FF40071154801F003F90E
:10061C001F2000F0D5FA164B1B68134A82FB0312FD
:10062C009210DB17D31A114A9360114B19680E4BB9
:10063C0083FB01239A10CB17D21A13469B00134449
:10064C005B00CA1A094BDA6000E000BF00BF80BD36
:10065C003C00002070000020080000203400002026
:10066C000008014000000020676666664400002018
:10067C000400002080B500AF8F4B1B68042B00F2E8
:10068C00178101A252F823F0A9060008B106000850
:10069C00D1060008770700081D080008864B0122C8
:1006AC001A6006E10020FFF74BFD0346002B02D039
:1006BC00814B02221A60814B0B221A60804B17224D
:1006CC001A60F6E00020FFF73BFD0346002B02D03A
:1006DC00794B03221A600220FFF732FD0346002BF0
:1006EC0009D0754B01221A60764B1A68764B1B6841
:1006FC00D31A764A1360764B1B68012B08D14FF442
:10070C009071744801F09FF84FF4FA7000F048FCB7
:10071C000120FFF715FD0346002B0CD0694B1B681D
:10072C00622B05DC674B1B680133664A136002E0E1
:10073C00644B00221A60634B1B68674A82FB0312EE
:10074C009210DB17D31A654A13605E4B1968624B23
:10075C0083FB01239A10CB17D21A13469B00134428
:10076C005B00CA1A5D4B5A60A3E00020FFF7E8FC5F
:10077C000346002B02D0504B04221A600220FFF7D4
:10078C00DFFC0346002B09D04B4B01221A604D4B6A
:10079C001A684D4B1B68D31A4C4A13604C4B1B68A0
:1007AC00012B08D14FF410714A4801F04CF84FF46A
:1007BC00FA7000F0F5FB0120FFF7C2FC0346002B9A
:1007CC000CD0414B1B68622B05DC3F4B1B68013383
:1007DC003D4A136002E03C4B00221A603A4B1B6806
:1007EC003D4A82FB03129210DB17D31A3B4A13606B
:1007FC00354B1968384B83FB01239A10CB17D21A4F
:10080C0013469B0013445B00CA1A344B5A6050E0E9
:10081C000020FFF795FC0346002B05D10220FFF7C3
:10082C008FFC0346002B09D0234B01221A60274B67
:10083C001A68254B1B68D31A224A1360244B1B6879
:10084C00012B08D14FF49061224800F0FCFF4FF4CB
:10085C00FA7000F0A5FB0120FFF772FC0346002B99
:10086C000CD01A4B1B68622B05DC184B1B68013330
:10087C00164A136002E0154B00221A60134B1B68DA
:10088C00154A82FB03129210DB17D31A134A13601A
:10089C000E4B1968104B83FB01239A10CB17D21AFD
:1008AC0013469B0013445B00CA1A0C4B5A6000E0C1
:1008BC0000BF00BF80BD00BF340000203800002006
:1008CC003C00002000000020040000200800002054
:1008DC00780000200008014067666666440000202E
:1008EC0080B582B000AF786001227F212E4800F0E5
:1008FC0092FF7B68092B53D801A252F823F000BF5A
:10090C0035090008410900084D090008590900087B
:10091C0065090008710900087D09000889090008AB
:10092C0095090008A109000800223F211E4800F08B
:10093C0072FF35E0002206211B4800F06CFF2FE00F
:10094C0000225B21184800F066FF29E000224F21AD
:10095C00154800F060FF23E000226621124800F0E9
:10096C005AFF1DE000226D210F4800F054FF17E0E4
:10097C0000227D210C4800F04EFF11E000220721DF
:10098C00094800F048FF0BE000227F21064800F0E8
:10099C0042FF05E000226F21034800F03CFF00BF3E
:1009AC0000BF0837BD4680BD000C014080B582B049
:1009BC0000AF786001224FF47E51334800F02BFFDA
:1009CC007B68092B5CD801A252F823F0010A0008BD
:1009DC000F0A00081D0A00082B0A0008390A000833
:1009EC00470A0008550A0008630A0008710A000843
:1009FC007F0A000800224FF4FC51234800F00BFF43
:100A0C003EE000224FF440711F4800F004FF37E035
:100A1C0000224FF436511C4800F0FDFE30E000225D
:100A2C004FF41E51184800F0F6FE29E000224FF456
:100A3C004C51154800F0EFFE22E000224FF45A51C1
:100A4C00114800F0E8FE1BE000224FF47A510E48EA
:100A5C0000F0E1FE14E000224FF460710A4800F04F
:100A6C00DAFE0DE000224FF47E51074800F0D3FE71
:100A7C0006E000224FF45E51034800F0CCFE00BFAC
:100A8C0000BF0837BD4680BD000C014080B582B068
:100A9C0000AF78607B68002B03D07B68012B1FD0E4
:100AAC003DE000220121204800F0B5FE0122022188
:100ABC001D4800F0B0FE002204211B4800F0ABFEE4
:100ACC0001220821184800F0A6FE184B1B68184696
:100ADC00FFF706FF154B9B681846FFF767FF1EE0F4
:100AEC0001220121104800F096FE002202210E483E
:100AFC0000F091FE012204210B4800F08CFE002234
:100B0C000821094800F087FE084B5B681846FFF780
:100B1C00E7FE064BDB681846FFF748FF00BF00BF37
:100B2C000837BD4680BD00BF0008014044000020CE
:100B3C0080B582B000AF78607B68202B29D07B68B1
:100B4C00202B36DC7B681E2B03D07B681F2B10D030
:100B5C002FE001222021194800F05DFE00224021E7
:100B6C00164800F058FE00228021144800F053FE75
:100B7C0020E000222021114800F04DFE01224021EE
:100B8C000E4800F048FE002280210C4800F043FE85
:100B9C0010E000222021094800F03DFE00224021F7
:100BAC00064800F038FE01228021044800F033FE94
:100BBC0000E000BF00BF0837BD4680BD0008014003
:100BCC0080B582B000AF78607B68202B2FD07B681B
:100BDC00202B3FDC7B681E2B03D07B681F2B13D094
:100BEC0038E001224FF480711D4800F014FE002201
:100BFC004FF400711A4800F00EFE00224FF4806191
:100C0C00174800F008FE26E000224FF480711448CB
:100C1C0000F001FE01224FF40071114800F0FBFDC1
:100C2C0000224FF480610E4800F0F5FD13E0002225
:100C3C004FF480710A4800F0EEFD00224FF4007171
:100C4C00074800F0E8FD01224FF48061044800F0F1
:100C5C00E2FD00E000BF00BF0837BD4680BD00BF0D
:100C6C000008014080B500AF00F0D4FA00F038F86D
:100C7C0000F0BEF800F070F8154801F035FA4FF4AA
:100C8C00FA7000F071F94FF4FA7000F089F9114B19
:100C9C0000221A60FFF724FBFFF706FCFFF7EAFCC3
:100CAC000D4B1B68012BF5D10C4B1B685A1C0B49C7
:100CBC000A601846FFF7EAFE084B1B68012B02DDA1
:100CCC00064B00221A604FF4FA7000F04DF9E1E780
:100CDC00C4000020340000207400002040000020DC
:100CEC0080B590B000AF07F11803282200211846F8
:100CFC0001F0B2FD3B1D00221A605A609A60DA6066
:100D0C001A610223BB610123BB621023FB62002327
:100D1C007B6307F11803184600F0AEFD0346002B69
:100D2C0001D000F0E3F80F237B600023BB600023AD
:100D3C00FB6000233B6100237B613B1D00211846B7
:100D4C0001F01AF80346002B01D000F0CFF800BFD9
:100D5C004037BD4680BD000080B586B000AF07F1BE
:100D6C00080300221A605A609A60DA603B4600223F
:100D7C001A605A601D4B4FF080421A601B4B41F6B3
:100D8C003F725A60194B00229A60184B0A22DA60A3
:100D9C00164B00221A61154B00229A61134801F080
:100DAC0053F90346002B01D000F0A0F84FF4805308
:100DBC00BB6007F1080319460C4801F0E9FA034639
:100DCC00002B01D000F092F800233B6000237B60E5
:100DDC003B461946054801F0B1FC0346002B01D0F7
:100DEC0000F084F800BF1837BD4680BDC400002059
:100DFC0080B588B000AF07F1100300221A605A606A
:100E0C009A60DA602F4B9B692E4A43F01003936172
:100E1C002C4B9B6903F01003FB60FB68294B9B690F
:100E2C00284A43F004039361264B9B6903F00403A7
:100E3C00BB60BB68234B9B69224A43F00803936158
:100E4C00204B9B6903F008037B607B68002240F217
:100E5C00EF711D4800F0DFFC002243F6FF711B48C8
:100E6C0000F0D9FC4FF460433B6100237B6101230C
:100E7C00BB6107F110031946154800F03BFB40F22B
:100E8C00EF733B6101237B610023BB610223FB6198
:100E9C0007F1100319460C4800F02CFB43F6FF73C6
:100EAC003B6101237B610023BB610223FB6107F1E2
:100EBC0010031946054800F01DFB00BF2037BD4646
:100ECC0080BD00BF0010024000080140000C014032
:100EDC000010014080B582B000AF786000F07CF863
:100EEC00FFF74CF900BF0837BD4680BD80B400AF9A
:100EFC0072B600BFFEE7000080B483B000AF78602C
:100F0C007B68084A82FB03129210DB17D31A064A3D
:100F1C001360064B00221A6000BF0C37BD4680BC24
:100F2C00704700BF67666666580000206C000020A2
:100F3C0080B483B000AF78607B68084A82FB0312F0
:100F4C009210DB17D31A064A1360064B00221A6064
:100F5C0000BF0C37BD4680BC704700BF6766666635
:100F6C005C0000207000002080B483B000AF78607B
:100F7C007B68084A82FB03129210DB17D31A064ACD
:100F8C001360064B00221A6000BF0C37BD4680BCB4
:100F9C00704700BF67666666600000207400002022
:100FAC0080B483B000AF78607B68084A82FB031280
:100FBC009210DB17D31A064A1360064B00221A60F4
:100FCC0000BF0C37BD4680BC704700BF67666666C5
:100FDC00640000207800002080B400AF294B1B680F
:100FEC00002B0BDD274B1B68013B264A1360254B5E
:100FFC001B68002B02DC244B01221A60234B1B685C
:10100C00002B0BDD214B1B68013B204A13601F4B4F
:10101C001B68002B02DC1E4B01221A601D4B1B6847
:10102C00002B0BDD1B4B1B68013B1A4A1360194B41
:10103C001B68002B02DC184B01221A60174B1B6833
:10104C00002B0BDD154B1B68013B144A1360134B33
:10105C001B68002B02DC124B01221A60114B1B681F
:10106C00002B0BDD0F4B1B68013B0E4A13600D4B25
:10107C001B68002B02DC0C4B01221A6000BFBD4622
:10108C0080BC7047540000206800002058000020ED
:10109C006C0000205C00002070000020600000202C
:1010AC0074000020640000207800002080B485B01B
:1010BC0000AF154B9B69144A43F001039361124B2B
:1010CC009B6903F00103BB60BB680F4BDB690E4AE5
:1010DC0043F08053D3610C4BDB6903F080537B608E
:1010EC007B680A4B5B68FB60FB6823F0E063FB608A
:1010FC00FB6843F08063FB60044AFB68536000BFED
:10110C001437BD4680BC70470010024000000140FF
:10111C0080B584B000AF78607B681B68B3F1804FFA
:10112C0013D10C4BDB690B4A43F00103D361094B20
:10113C00DB6903F00103FB60FB68002200211C202B
:10114C0000F0A1F91C2000F0BAF900BF1037BD4621
:10115C0080BD00BF0010024080B400AFFEE780B439
:10116C0000AFFEE780B400AFFEE780B400AFFEE74F
:10117C0080B400AFFEE780B400AF00BFBD4680BCBA
:10118C00704780B400AF00BFBD4680BC704780B4D0
:10119C0000AF00BFBD4680BC704780B500AF00F00B
:1011AC007FF800BF80BD000080B500AF024800F0A2
:1011BC00E7FF00BF80BD00BFC400002080B400AFBB
:1011CC0000BFBD4680BC70470C480D490D4A00233A
:1011DC0002E0D458C4500433C4188C42F9D30A4AE0
:1011EC000A4C002301E013600432A242FBD3FFF748
:1011FC00E5FF01F00DFBFFF735FD70470000002007
:10120C0018000020B428000818000020100100204D
:10121C00FEE7000080B500AF084B1B68074A43F09F
:10122C0010031360032000F023F90F2000F008F8DE
:10123C00FFF73CFF0023184680BD00BF0020024092
:10124C0080B582B000AF7860124B1A68124B1B78D5
:10125C0019464FF47A73B3FBF1F3B2FBF3F3184670
:10126C0000F03BF90346002B01D001230EE07B6814
:10127C000F2B0AD8002279684FF0FF3000F003F9E9
:10128C00064A7B681360002300E0012318460837E8
:10129C00BD4680BD0C000020140000201000002072
:1012AC0080B400AF054B1B781A46054B1B681344E2
:1012BC00034A136000BFBD4680BC70471400002079
:1012CC000C01002080B400AF024B1B681846BD46D1
:1012DC0080BC70470C01002080B485B000AF7860F2
:1012EC007B6803F00703FB600C4BDB68BB60BA68E0
:1012FC004FF6FF031340BB60FB681A02BB68134335
:10130C0043F0BF6343F40033BB60044ABB68D36053
:10131C0000BF1437BD4680BC704700BF00ED00E035
:10132C0080B400AF044BDB681B0A03F007031846BC
:10133C00BD4680BC704700BF00ED00E080B483B0B8
:10134C0000AF0346FB7197F90730002B0BDBFB79E1
:10135C0003F01F02064997F907305B09012000FAD8
:10136C0002F241F8232000BF0C37BD4680BC704709
:10137C0000E100E080B483B000AF03463960FB713C
:10138C0097F90730002B0ADB3B68DAB20C4997F966
:10139C0007301201D2B20B4483F800230AE03B68F9
:1013AC00DAB20849FB7903F00F03043B1201D2B205
:1013BC000B441A7600BF0C37BD4680BC704700BF8B
:1013CC0000E100E000ED00E080B489B000AFF8600F
:1013DC00B9607A60FB6803F00703FB61FB69C3F13A
:1013EC000703042B28BF0423BB61FB690433062BC2
:1013FC0002D9FB69033B00E000237B614FF0FF3215
:10140C00BB6902FA03F3DA43BB681A407B699A4062
:10141C004FF0FF317B6901FA03F3D9437B680B4032
:10142C00134318462437BD4680BC704780B582B044
:10143C0000AF78607B68013BB3F1807F01D301235F
:10144C000FE00A4A7B68013B53600F214FF0FF30DD
:10145C00FFF790FF054B00229A60044B07221A609D
:10146C00002318460837BD4680BD00BF10E000E0E1
:10147C0080B582B000AF78607868FFF72DFF00BFB1
:10148C000837BD4680BD80B586B000AF0346B96055
:10149C007A60FB7300237B61FFF742FF78617A6807
:1014AC00B9687869FFF790FF024697F90F3011463B
:1014BC001846FFF75FFF00BF1837BD4680BD80B5EB
:1014CC0082B000AF0346FB7197F907301846FFF75F
:1014DC0035FF00BF0837BD4680BD80B582B000AF78
:1014EC0078607868FFF7A2FF034618460837BD46B8
:1014FC0080BD000080B48BB000AF786039600023F1
:10150C007B6200233B6248E101227B6A02FA03F30F
:10151C00FB613B681B68FA691340BB61BA69FB69E4
:10152C009A4240F037813B685B68A34A93425ED095
:10153C00A14A934275D8A14A934258D09F4A9342EC
:10154C006FD89F4A934252D09D4A934269D89D4A84
:10155C0093424CD09B4A934263D89B4A934246D0C9
:10156C00994A93425DD8122B2AD8122B59D801A232
:10157C0052F823F0FB150008D5150008E7150008F4
:10158C00291600082F1600082F1600082F16000821
:10159C002F1600082F1600082F1600082F1600080B
:1015AC002F1600082F1600082F1600082F160008FB
:1015BC002F1600082F160008DD150008F11500087D
:1015CC00824A934213D02CE03B68DB683B6229E0F3
:1015DC003B68DB6804333B6224E03B68DB68083320
:1015EC003B621FE03B68DB680C333B621AE03B68F4
:1015FC009B68002B02D104233B6213E03B689B6881
:10160C00012B05D108233B627B68FA691A6109E05A
:10161C0008233B627B68FA695A6103E000233B6252
:10162C0000E000BFBB69FF2B01D87B6801E07B6841
:10163C0004337B61BB69FF2B02D87B6A9B0002E001
:10164C007B6A083B9B003B617B691A680F213B69F5
:10165C0001FA03F3DB431A40396A3B6901FA03F3DD
:10166C001A437B691A603B685B6803F08053002B5C
:10167C0000F09080564B9B69554A43F001039361EF
:10168C00534B9B6903F00103BB60BB68514A7B6AF7
:10169C009B08023352F82330FB607B6A03F0030390
:1016AC009B000F2202FA03F3DB43FA681340FB6042
:1016BC007B68494A93420DD07B68484A934207D0D5
:1016CC007B68474A934201D1022304E0032302E0E2
:1016DC00012300E000237A6A02F003029200934097
:1016EC00FA681343FB603B497B6A9B080233FA6838
:1016FC0041F823203B685B6803F48033002B06D051
:10170C00384B1A683749BB6913430B6006E0354BFD
:10171C001A68BB69DB43334913400B603B685B6859
:10172C0003F40033002B06D02E4B5A682D49BB69AD
:10173C0013434B6006E02B4B5A68BB69DB432949CA
:10174C0013404B603B685B6803F48013002B06D09E
:10175C00244B9A682349BB6913438B6006E0214BE9
:10176C009A68BB69DB431F4913408B603B685B681D
:10177C0003F40013002B06D01A4BDA681949BB6925
:10178C001343CB6006E0174BDA68BB69DB431549A2
:10179C001340CB607B6A01337B623B681A687B6ABF
:1017AC0022FA03F3002B7FF4AFAE00BF00BF2C373F
:1017BC00BD4680BC704700BF0000321000003110E5
:1017CC000000221000002110000012100000111067
:1017DC00001002400000014000080140000C0140D4
:1017EC00001001400004014080B485B000AF786067
:1017FC000B467B807B689A687B881340002B02D059
:10180C000123FB7301E00023FB73FB7B18461437A9
:10181C00BD4680BC704780B483B000AF78600B4687
:10182C007B8013467B707B78002B03D07A887B6897
:10183C001A6103E07B881A047B681A6100BF0C37BD
:10184C00BD4680BC704780B485B000AF78600B4655
:10185C007B807B68DB68FB607A88FB6813401A042A
:10186C00FB68D9437B880B401A437B681A6100BF25
:10187C001437BD4680BC704780B586B000AF786029
:10188C007B68002B01D101236CE27B681B6803F0A1
:10189C000103002B00F08780924B5B6803F00C0374
:1018AC00042B0CD08F4B5B6803F00C03082B12D16C
:1018BC008C4B5B6803F48033B3F5803F0BD1894BC1
:1018CC001B6803F40033002B6CD07B685B68002B27
:1018DC0068D1012346E27B685B68B3F5803F06D193
:1018EC00804B1B687F4A43F4803313602EE07B6887
:1018FC005B68002B0CD17B4B1B687A4A23F480333A
:10190C001360784B1B68774A23F4802313601DE027
:10191C007B685B68B3F5A02F0CD1724B1B68714AC6
:10192C0043F4802313606F4B1B686E4A43F480337F
:10193C0013600BE06B4B1B686A4A23F48033136013
:10194C00684B1B68674A23F4802313607B685B68D1
:10195C00002B13D0FFF7B6FC386108E0FFF7B2FCA0
:10196C0002463B69D31A642B01D90323FAE15D4B80
:10197C001B6803F40033002BF0D014E0FFF7A2FC3B
:10198C00386108E0FFF79EFC02463B69D31A642BD2
:10199C0001D90323E6E1534B1B6803F40033002BFE
:1019AC00F0D100E000BF7B681B6803F00203002B42
:1019BC0063D04C4B5B6803F00C03002B0BD0494BF2
:1019CC005B6803F00C03082B1CD1464B5B6803F4DB
:1019DC008033002B16D1434B1B6803F00203002B02
:1019EC0005D07B681B69012B01D00123BAE13D4B6B
:1019FC001B6823F0F8027B685B69DB0039491343F1
:101A0C000B603AE07B681B69002B20D0364B01221F
:101A1C001A60FFF757FC386108E0FFF753FC0246E9
:101A2C003B69D31A022B01D903239BE12D4B1B6875
:101A3C0003F00203002BF0D02A4B1B6823F0F802B2
:101A4C007B685B69DB00274913430B6015E0264B71
:101A5C0000221A60FFF736FC386108E0FFF732FC11
:101A6C0002463B69D31A022B01D903237AE11D4BA1
:101A7C001B6803F00203002BF0D17B681B6803F09A
:101A8C000803002B3AD07B689B69002B19D0174BAD
:101A9C0001221A60FFF716FC386108E0FFF712FC10
:101AAC0002463B69D31A022B01D903235AE10D4B91
:101ABC005B6A03F00203002BF0D0012000F0A6FAC1
:101ACC001CE00A4B00221A60FFF7FCFB38610FE0A8
:101ADC00FFF7F8FB02463B69D31A022B08D9032304
:101AEC0040E100BF0010024000004242800442422C
:101AFC009E4B5B6A03F00203002BE9D17B681B68E9
:101B0C0003F00403002B00F0A6800023FB75974B19
:101B1C00DB6903F08053002B0DD1944BDB69934AA6
:101B2C0043F08053D361914BDB6903F08053BB606E
:101B3C00BB680123FB758E4B1B6803F48073002B71
:101B4C0018D18B4B1B688A4A43F480731360FFF7E0
:101B5C00B9FB386108E0FFF7B5FB02463B69D31AC5
:101B6C00642B01D90323FDE0814B1B6803F48073C4
:101B7C00002BF0D07B68DB68012B06D17B4B1B6AFA
:101B8C007A4A43F0010313622DE07B68DB68002B7B
:101B9C000CD1764B1B6A754A23F001031362734B0D
:101BAC001B6A724A23F0040313621CE07B68DB6837
:101BBC00052B0CD16D4B1B6A6C4A43F0040313626A
:101BCC006A4B1B6A694A43F0010313620BE0674BD3
:101BDC001B6A664A23F001031362644B1B6A634A57
:101BEC0023F0040313627B68DB68002B15D0FFF72E
:101BFC0069FB38610AE0FFF765FB02463B69D31AC3
:101C0C0041F28832934201D90323ABE0574B1B6A54
:101C1C0003F00203002BEED014E0FFF753FB386106
:101C2C000AE0FFF74FFB02463B69D31A41F28832B8
:101C3C00934201D9032395E04C4B1B6A03F002033A
:101C4C00002BEED1FB7D012B05D1484BDB69474ABC
:101C5C0023F08053D3617B68DB69002B00F081801B
:101C6C00424B5B6803F00C03082B61D07B68DB698B
:101C7C00022B46D13F4B00221A60FFF723FB386141
:101C8C0008E0FFF71FFB02463B69D31A022B01D970
:101C9C00032367E0354B1B6803F00073002BF0D176
:101CAC007B681B6AB3F5803F08D1304B5B6823F42B
:101CBC0000327B689B682D4913434B602B4B5B6850
:101CCC0023F474127B68196A7B685B6A0B4327499F
:101CDC0013434B60274B01221A60FFF7F3FA38616C
:101CEC0008E0FFF7EFFA02463B69D31A022B01D941
:101CFC00032337E01D4B1B6803F00073002BF0D05F
:101D0C002FE01C4B00221A60FFF7DCFA386108E068
:101D1C00FFF7D8FA02463B69D31A022B01D90323E9
:101D2C0020E0124B1B6803F00073002BF0D118E07D
:101D3C007B68DB69012B01D1012313E00B4B5B6842
:101D4C00FB60FB6803F480327B681B6A9A4206D105
:101D5C00FB6803F470127B685B6A9A4201D0012322
:101D6C0000E0002318461837BD4680BD0010024025
:101D7C00007000406000424280B584B000AF7860D3
:101D8C0039607B68002B01D10123D0E06A4B1B68C2
:101D9C0003F007033A689A4210D9674B1B6823F08B
:101DAC00070265493B6813430B60634B1B6803F0E8
:101DBC0007033A689A4201D00123B8E07B681B689C
:101DCC0003F00203002B20D07B681B6803F0040394
:101DDC00002B05D0594B5B68584A43F4E0635360C1
:101DEC007B681B6803F00803002B05D0534B5B6822
:101DFC00524A43F460535360504B5B6823F0F0023B
:101E0C007B689B684D4913434B607B681B6803F0F0
:101E1C000103002B40D07B685B68012B07D1474B3B
:101E2C001B6803F40033002B15D101237FE07B6882
:101E3C005B68022B07D1414B1B6803F00073002B2E
:101E4C0009D1012373E03D4B1B6803F00203002B07
:101E5C0001D101236BE0394B5B6823F003027B68F3
:101E6C005B68364913434B60FFF72CFAF8600AE0C5
:101E7C00FFF728FA0246FB68D31A41F288329342E4
:101E8C0001D9032353E02D4B5B6803F00C027B68F4
:101E9C005B689B009A42EBD1274B1B6803F007034E
:101EAC003A689A4210D2244B1B6823F0070222494D
:101EBC003B6813430B60204B1B6803F007033A6825
:101ECC009A4201D0012332E07B681B6803F00403C3
:101EDC00002B08D0194B5B6823F4E0627B68DB684D
:101EEC00164913434B607B681B6803F00803002BF7
:101EFC0009D0124B5B6823F460527B681B69DB00D2
:101F0C000E4913434B6000F021F802460B4B5B6803
:101F1C001B0903F00F030A49CB5C22FA03F3094AAD
:101F2C001360094B1B681846FFF78AF90023184603
:101F3C001037BD4680BD00BF00200240001002409B
:101F4C009C2800080C0000201000002090B48AB0DF
:101F5C0000AF2A4B3C1D0FCB84E80F0040F201234D
:101F6C003B800023FB610023BB6100237B620023C9
:101F7C007B6100233B62224B5B68FB61FB6903F0D6
:101F8C000C03042B02D0082B03D02DE01D4B3B621D
:101F9C002DE0FB699B0C03F00F0307F1280213449F
:101FAC0013F8243C7B61FB6903F48033002B13D0C2
:101FBC00134B5B685B0C03F0010307F1280213441D
:101FCC0013F8283CBB617B690E4A02FB03F2BB6928
:101FDC00B2FBF3F37B6204E07B690B4A02FB03F375
:101FEC007B627B6A3B6202E0064B3B6200BF3B6A52
:101FFC0018462837BD4690BC704700BF8C28000897
:10200C000010024000127A0000093D0080B485B037
:10201C0000AF78600A4B1B680A4AA2FB03235B0AD9
:10202C007A6802FB03F3FB6000BFFB685A1EFA6080
:10203C00002BF9D100BF00BF1437BD4680BC7047E0
:10204C000C000020D34D621080B582B000AF7860D8
:10205C007B68002B01D1012341E07B6893F83D3074
:10206C00DBB2002B06D17B68002283F83C20786819
:10207C00FFF74EF87B68022283F83D207B681A68D4
:10208C007B6804331946104600F06AFA7B6801221B
:10209C0083F846207B68012283F83E207B6801226E
:1020AC0083F83F207B68012283F840207B68012263
:1020BC0083F841207B68012283F842207B6801224F
:1020CC0083F843207B68012283F844207B6801223B
:1020DC0083F845207B68012283F83D2000231846B5
:1020EC000837BD4680BD000080B485B000AF786075
:1020FC007B6893F83D30DBB2012B01D0012335E036
:10210C007B68022283F83D207B681B68DA687B6859
:10211C001B6842F00102DA607B681B68164A934226
:10212C0009D07B681B68B3F1804F04D07B681B68B7
:10213C00124A934211D17B681B689B6803F007031A
:10214C00FB60FB68062B10D07B681B681A687B68E9
:10215C001B6842F001021A6007E07B681B681A6872
:10216C007B681B6842F001021A6000231846143782
:10217C00BD4680BC704700BF002C014000040040ED
:10218C0080B582B000AF78607B681B681B6903F078
:10219C000203022B22D17B681B68DB6803F002036D
:1021AC00022B1BD17B681B686FF002021A617B68E3
:1021BC0001221A777B681B689B6903F00303002BD1
:1021CC0003D0786800F0B1F905E0786800F0A4F964
:1021DC00786800F0B3F97B6800221A777B681B687B
:1021EC001B6903F00403042B22D17B681B68DB689A
:1021FC0003F00403042B1BD17B681B686FF00402F3
:10220C001A617B6802221A777B681B689B6903F44E
:10221C004073002B03D0786800F087F905E07868EC
:10222C0000F07AF9786800F089F97B6800221A7757
:10223C007B681B681B6903F00803082B22D17B68A1
:10224C001B68DB6803F00803082B1BD17B681B6839
:10225C006FF008021A617B6804221A777B681B688E
:10226C00DB6903F00303002B03D0786800F05DF901
:10227C0005E0786800F050F9786800F05FF97B6849
:10228C0000221A777B681B681B6903F01003102B64
:10229C0022D17B681B68DB6803F01003102B1BD169
:1022AC007B681B686FF010021A617B6808221A7732
:1022BC007B681B68DB6903F44073002B03D07868E0
:1022CC0000F033F905E0786800F026F9786800F042
:1022DC0035F97B6800221A777B681B681B6903F051
:1022EC000103012B0ED17B681B68DB6803F0010333
:1022FC00012B07D17B681B686FF001021A617868AB
:10230C00FEF7E8FD7B681B681B6903F08003802BDC
:10231C000ED17B681B68DB6803F08003802B07D130
:10232C007B681B686FF080021A61786800F067FAAE
:10233C007B681B681B6903F04003402B0ED17B6844
:10234C001B68DB6803F04003402B07D17B681B68DC
:10235C006FF040021A61786800F0F9F87B681B682E
:10236C001B6903F02003202B0ED17B681B68DB68F4
:10237C0003F02003202B07D17B681B686FF0200231
:10238C001A61786800F032FA00BF0837BD4680BD8C
:10239C0080B584B000AF786039607B6893F83C30CE
:1023AC00012B01D10223B3E07B68012283F83C208E
:1023BC007B68022283F83D207B681B689B68FB606E
:1023CC00FB6823F07703FB60FB6823F47F43FB601F
:1023DC007B681B68FA689A603B681B68B3F5005F02
:1023EC003ED0B3F5005F00F28780B3F5805F00F05C
:1023FC008580B3F5805F7FD8702B1AD0702B7BD87B
:10240C00602B50D0602B77D8502B3CD0502B73D8EE
:10241C00402B58D0402B6FD8302B64D0302B6BD83E
:10242C00202B60D0202B67D8002B5CD0102B5AD0DF
:10243C0062E07B6818683B6899683B685A683B683F
:10244C00DB6800F05CF97B681B689B68FB60FB68D1
:10245C0043F07703FB607B681B68FA689A604EE078
:10246C007B6818683B6899683B685A683B68DB680E
:10247C0000F045F97B681B689A687B681B6842F41E
:10248C0080429A603BE07B6818683B6859683B68FF
:10249C00DB681A4600F0BCF87B681B6850211846B4
:1024AC0000F013F92BE07B6818683B6859683B68AF
:1024BC00DB681A4600F0DAF87B681B686021184666
:1024CC0000F003F91BE07B6818683B6859683B68AF
:1024DC00DB681A4600F09CF87B681B6840211846A4
:1024EC0000F0F3F80BE07B681A683B681B68194630
:1024FC00104600F0EAF802E000BF00E000BF7B6885
:10250C00012283F83D207B68002283F83C200023C5
:10251C0018461037BD4680BD80B483B000AF7860DC
:10252C0000BF0C37BD4680BC704780B483B000AF91
:10253C00786000BF0C37BD4680BC704780B483B058
:10254C0000AF786000BF0C37BD4680BC704780B4CC
:10255C0083B000AF786000BF0C37BD4680BC7047BD
:10256C0080B485B000AF786039607B681B68FB6015
:10257C007B68254A934207D07B68B3F1804F03D028
:10258C007B68224A934208D1FB6823F07003FB60FE
:10259C003B685B68FA681343FB607B681A4A93429A
:1025AC0007D07B68B3F1804F03D07B68174A934206
:1025BC0008D1FB6823F44073FB603B68DB68FA6866
:1025CC001343FB60FB6823F080023B685B69134399
:1025DC00FB607B68FA681A603B689A687B68DA6211
:1025EC003B681A687B689A627B68074A934203D1FE
:1025FC003B681A697B681A637B6801225A6100BFC9
:10260C001437BD4680BC7047002C014000040040CC
:10261C0080B487B000AFF860B9607A60FB681B6A61
:10262C007B61FB681B6A23F00102FB681A62FB6882
:10263C009B693B613B6923F0F0033B617B681B01A9
:10264C003A6913433B617B6923F00A037B617A6926
:10265C00BB6813437B61FB683A699A61FB687A69D2
:10266C001A6200BF1C37BD4680BC704780B487B06F
:10267C0000AFF860B9607A60FB681B6A23F0100247
:10268C00FB681A62FB689B697B61FB681B6A3B6198
:10269C007B6923F470437B617B681B037A6913436A
:1026AC007B613B6923F0A0033B61BB681B013A696A
:1026BC0013433B61FB687A699A61FB683A691A6259
:1026CC0000BF1C37BD4680BC704780B485B000AFDE
:1026DC00786039607B689B68FB60FB6823F0700353
:1026EC00FB603A68FB68134343F00703FB607B68AD
:1026FC00FA689A6000BF1437BD4680BC704780B43E
:10270C0087B000AFF860B9607A603B60FB689B688B
:10271C007B617B6923F47F437B613B681A027B6896
:10272C001A43BB6813437A6913437B61FB687A696C
:10273C009A6000BF1C37BD4680BC704780B485B022
:10274C0000AF786039607B6893F83C30012B01D185
:10275C00022341E07B68012283F83C207B68022243
:10276C0083F83D207B681B685B68FB607B681B689B
:10277C009B68BB60FB6823F07003FB603B681B68C5
:10278C00FA681343FB607B681B68FA685A607B68C5
:10279C001B68144A934209D07B681B68B3F1804FC5
:1027AC0004D07B681B68104A93420CD1BB6823F0A1
:1027BC008003BB603B685B68BA681343BB607B6893
:1027CC001B68BA689A607B68012283F83D207B689D
:1027DC00002283F83C20002318461437BD4680BCE9
:1027EC00704700BF002C01400004004080B483B04F
:1027FC0000AF786000BF0C37BD4680BC704780B41A
:10280C0083B000AF786000BF0C37BD4680BC70470A
:10281C0070B500260C4D0D4C641BA410A64209D1BA
:10282C0000F022F800260A4D0A4C641BA410A642A4
:10283C0005D170BD55F8043B98470136EEE755F8C5
:10284C00043B98470136F2E7AC280008AC28000896
:10285C00AC280008B028000803460244934200D17B
:10286C00704703F8011BF9E7F8B500BFF8BC08BCCA
:10287C009E467047F8B500BFF8BC08BC9E46704732
:10288C0002030405060708090A0B0C0D0E0F1010A5
:10289C000000000000000000010203040607080904
:0428AC0031010008EE
:0428B0000D0100080E
:1028B4000A00000003000000070000000024F400E8
:0828C4001000000001000000FB
:04000005080011D509
:00000001FF
